:1000000000308A00E72800000A108A100A118207CF
:100010003F3406345B344F3466346D347D340734FA
:100020007F346F342430840083130008031925289B
:100030000630F800F701F70B1B28F80B1A287B3065
:10004000F700F70B2128800B18280800221422083B
:10005000831687008312071C5F28A21422088316C8
:100060008700831287183A282215220883168700F2
:10007000831207195E282008093C031D4D28023011
:10008000A300FA30A4001220A30B41288316860196
:100090003F3083128600A0015D280230A300FA30B1
:1000A000A4001220A30B4F28A00A20080420A300BC
:1000B000831686018312230886002D28E228221544
:1000C0002208831687008312071D9828221422080D
:1000D00083168700831207187328A2142208831638
:1000E0008700831287189728A008031D86280230EE
:1000F000A300FA30A4001220A30B792883168601EE
:100100006F30831286000930A00096280230A300C9
:10011000FA30A4001220A30B8828A0032008042092
:10012000A300831686018312230886006628E2282E
:10013000A2142208831687008312871CE228200855
:100140000420A30083168601831223088600FA3058
:10015000A400122022142208831687008312071895
:10016000B82822152208831687008312071DBC2891
:100170000130A100E228E128A2142208831687009A
:100180008312871CD1282108023C031DD12801308D
:10019000A100831686016F30831286000930A0000B
:1001A000E128A2142208831687008312871CE12805
:1001B000210BE128A10A831686013F3083128600B5
:1001C000A001A7282008F8008A110A12F828A00127
:1001D0000130A100FF30A20083161F149F141F15C9
:1001E0009F1107309C0083131F308305831226283C
:0401F000F728630089
:02400E00323F3F
:00000001FF
;PIC16F877A
;CRC=A16C  CREATED="27-Ara-20 18:44"
